:100856000249000A024B000A02470005045C3A837B
:10086600126F043B00000000044D0000000004531A
:1008760000000000046A41B80000046E0000000099
:100886000472000000000421000000000433000090
:10089600000004370000000002680000026000004B
:1008A6000262000002250000022700000229000063
:0408B600022B000011
:100729008B108A1189128C138D14C3E5136480947C
:1007390080500FC3E49514F514E49513F513742D43
:100749008008AB10AA11A9127420120426AE13AFA7
:10075900147C007D64120438EF2430FFAB100512BD
:10076900E51270020511F9AA11EF120426AE13AFB2
:10077900147C007D641204388C138D14AE13AF14ED
:100789007C007D0A120438EF2430FFAB100512E516
:100799001270020511F9AA11EF120426AE13AF1453
:1007A9007C007D0A1204388C138D14E5142430FF63
:1007B900AB100512E51270020511F9AA11EF020436
:0107C9002609
:1009C000E4FDFCC3ED9FEC9E5015E4FBFA0BBB006D
:0F09D000010AEB64794A70F50DBD00010C80E45B
:0109DF0022F5
:03000300DFFE22FB
:100A8000AE07AF061EEF600C7FF51200037FF51274
:050A9000000380EE22CE
:0F0AE200438901E4F58CF58AD2A9D28CD2B922CE
:0D000E00438910E4F58DF58BC2ABC28E2244
:1008F9007D017F38120A957D017F08120A957D01D5
:100909007F01120A957D017F06120A957D017F0CF0
:10091900120A957B41E4FDFF1209E07B477D01E462
:04092900FF0209E0E0
:100AAA007580FFC2A4D2A500D2A60000E58020E787
:040ABA00FBC2A622B3
:100A9500ED6003120AAAC2A4C2A5008F8000D2A6E7
:050AA5000000C2A622C2
:100ABE00120AAAD2A4C2A5008F8000D2A60000C23C
:020ACE00A6225E
:1009E000AE07AC0353050153060FED600343064009
:0F09F000430680AF06E4FD120A95AF04020ABE6B
:0A08BB008F088D098B0A8A0B890C47
:1008C500E4F50F53090153080FE50E150EAE0D7033
:1008D50002150D4E601DAB0AAA0BA90C850F82757A
:1008E50083001203F9FBAD09AF081209E0050F05F6
:0308F5000880D6A2
:0108F80022DD
:100A370000000000000000000000000000000000AF
:090A470000000000000000002284
:0F0AF100D291D290120A37C291120A37C29022C4
:0C0B2800C291D290120A37D291020A3713
:0E0B0000A2009291D290120A37C290020A37D8
:0D0B0E00D290120A37A291C290120A37222B
:100A5000E4FEEF25E0FF9291D290120A37C2901285
:090A60000A370EBE08EC020B0E71
:1009FF00E4FFD291FEEF25E0FFD290120A37A291C9
:0D0A0F00E4334207C290120A370EBE08E819
:010A1C0022B7
:100A6900AC07120AF17FD0120A50AF04120A50AF34
:070A790005120A50020B28D0
:02095800AD07E9
:10095A00120AF17FD0120A50AF05120A50120AF198
:10096A007FD1120A501209FFD200120B00120B2873
:01097A00225A
:10099E00E4FD7F6B120A697D077F19120A691D7FBC
:1009AE001A120A697D187F1B120A697D017F1C02CB
:0209BE000A69C4
:02097B00AC07C7
:10097D00120958AB07EC04FF120958AD07AF03EF8E
:10098D003395E0EFFEED3395E0FCE42DFFEE3CFEFC
:01099D002237
:10092D008D158B167C007D401204387B007A007982
:10093D0057AD07AC061207297B007A007957750D64
:0B094D0000750E04AD16AF150208BBCC
:03000B00020A1DC9
:100A1D0020920885268C85288A800C852A8C852C29
:0A0A2D008A756200756300B2923210
:03001B00020B1BBA
:0D0B1B00758D00758B0075600075610032EE
:1004E5007FF47E011209C0D2AF12099E120AE27F83
:1004F500967E001209C0E563456270FA7F3B1209DA
:100505007BAC06AD07EC12033F8F678E668D658C5D
:1005150064756200756301E4FFFEFDFCAB67AA66C6
:10052500A965A8641202BC5017AF67AE66AD65AC8D
:10053500641203298F678E668D658C64D293800261
:10054500C293AF67AE66AD65AC64E4FBFA798078BB
:100555004112021F8F678E668D658C64AC4BAD4C66
:10056500E412033FA804A905AA06AB07AF5FAE5E78
:10057500AD5DAC5C12021F8F468E458D448C43AC3D
:1005850047AD48E412033FAB5FAA5EA95DA85C12C4
:10059500021F8F428E418D408C3F854949854A4ACD
:1005A500AC49AD4AE412033FAB46AA45A944A8436A
:1005B5001201161203788E2F8F30AC49AD4AE41222
:1005C500033FAB42AA41A940A83F12011612037886
:1005D5008E2D8F2EAB6DAA6CA96BA86AAF67AE6620
:1005E500AD65AC641200218F3E8E3D8D3C8C3B1277
:1005F5000378120AD0AC06AD07EC12033FAB6DAA27
:100605006CA96BA86A1202BCAB50AA4FA94EA84DA3
:10061500AF3EAE3DAD3CAC3B5028120021C004C0FE
:1006250005C006C007AC49AD4AE412033FD003D06C
:1006350002D001D000120116AB36AA35A934A83371
:100645008041120021C004C005C006C007AC49ADF9
:100655004AE412033FD003D002D001D000120116A4
:10066500C004C005C006C007AC2FAD30E412033F7F
:10067500AB3EAA3DA93CA83B120116D003D002D03F
:1006850001D0001200258F248E238D228C21853EDA
:1006950050853D4F853C4E853B4D855056854F5584
:1006A500854E54854D5385243685233585223485DD
:1006B5002133AF24AE23AD22AC211203788E688F8F
:1006C50069D3E5699484E568940340067568037504
:1006D5006984AE68AF69AB07AA06C374FF9BFF7454
:1006E500FF9AFEE49400FDE49400FC780812047C73
:1006F5008E258F26C374FF9BFFE4F5278F28E569B8
:100705002417FFE56834FCFEE433FDE433FC780888
:1007150012047C8E298F2AE5692417FFE4F52B8FB7
:040725002C0204FBA3
:10001E000203E4E86480F8E933E83360110460F029
:10002E00ED33EC337009E8FCE9FDEAFEEBFF220448
:10003E0060DED3EB9FEA9EE99DE8C2E78CF0C2F743
:10004E0095F0400CE8CCF8E9CDF9EACEFAEBCFFB0F
:10005E001203AF85D0F05804700320D5B3E80470B6
:10006E00075002B2D50203EE92D5EC0460F7E4CC51
:10007E00C0E0C398F8603B94186008400DD0E0FBD8
:10008E000203C6E4FBFAC9FC8028E830E406E4C9A2
:10009E00FBE4CAFCE830E305E4C9CACBFCE854072C
:1000AE006010F8C3E913F9EA13FAEB13FBEC13FC37
:1000BE00D8F130F52FC3E49CFCEF9BFFEE9AFEEDDA
:1000CE0099FDD0E0FBEF4E4D4C701222DB03020384
:1000DE00EBEC2CFCEF33FFEE33FEED33FDED30E7B2
:1000EE00EB0203C6EF2BFFEE3AFEED39FDD0E0FB3F
:1000FE0050130BBB00030203EEED13FDEE13FEEFE8
:08010E0013FFEC13FC0203C611
:10011600EC4D6011E8497017ED33EC3304600DE4E3
:10012600FCFFFEFD22E933E8330470F80203E41213
:1001360003AF58046009E4CC248150062850090214
:1001460003EE2840030203EBC0E0EB4A7044B9809B
:1001560006D0E0FB0203DAEF4E701CBD8008EBFF11
:10016600EAFEE9FD80EBE98DF0A4FEE5F00201FF71
:10017600E9CDF9EAFEEBFFEF89F0A4FCE5F0CE89C4
:10018600F0A42EFFE435F0CD89F0A42DFEE435F081
:100196008067EF4E7005BD80D780C3EF8BF0A4ACAF
:1001A600F0EE8BF0A42CFCE435F0F8EF8AF0A42CEA
:1001B600E5F038FCE433CB8DF0A42CFCE5F03BF8FD
:1001C600EE8AF0A42CFCE5F038F8E433CF89F0A4ED
:1001D6002CFCE5F038CF3400CE89F0A42FFFE5F0F3
:1001E6003EFEE433C98DF0A42EFEE5F039CD8AF04B
:1001F600A42FFFE5F03EFEE43DFD33D0E0FB5007C3
:100206000BBB000F0203EEEC2CFCEF33FFEE33FECC
:06021600ED33FD0203C6FA
:10021C000203EEEC5D046005E8590470030203E48C
:10022C001203AF580460F6EC4860F2EC7004FDFE6B
:10023C00FF22C860DB2481C85009C39860025006B5
:10024C000203EB9850CAF582E9294B4A7005AB8240
:10025C000203DA75F0007C1A7880C3EF9BEE9AEDFE
:10026C0099400DC3EF9BFFEE9AFEED99FDE842F02D
:10027C00DC23ACF0D0E0FFD0E0FED0E0FDAB822080
:10028C00E7101BEB60BAEC2CFCEF33FFEE33FEED0A
:10029C0033FD0203C6E803F830E705C0F075F00043
:1002AC00EF2FFFEE33FEED33FD40B830E7C280AAEE
:1002BC0074F8CC6480CCC86480C8F582046043C3F5
:1002CC00EB9FF5F0EA9E42F0E99D42F0E89C45F088
:1002DC0060305018E5825FFFE582F42B5582FB50AD
:1002EC00210ABA001D09B90019088016E5825BFBCA
:1002FC00E582F42F5582FF50090EBE00050DBD009E
:10030C00010CC3EB9FF5F0EA9E42F0E99D42F0E848
:0D031C009C45F06007CC4820E701B3EC22BF
:10032900ED33EC33600A047003BD8004ECB2E7FCE2
:0103390022A1
:10033A0075F020800E75F010800575F0087D007E3E
:10034A00007F003392D530D50312046EEC3340108F
:10035A00EF33FFEE33FEED33FDEC33FCD5F0ED2247
:0E036A00E5F0247EA2D513CC92E7CDCEFF2283
:10037800EDD2E7CD33EC3392D524814006E4FFFE7D
:10038800FDFC22FCE4CFCECDCC24E0501174FF80DC
:10039800EDC3CC13CCCD13CDCE13CECF13CF047079
:0703A800F030D5DE02046E07
:1003AF00E9D2E7C933E833F892D5EDD2E7CD33EC94
:0703BF0033FC5002B2D5220D
:1003C600EC30E7100FBF000C0EBE00080DBD000498
:1003D6000BEB6014A2D5EB13FCED92E7FD2274FF44
:1003E600FCFDFEFF22E480F8A2D574FF13FC7D809D
:0303F600E480EFB1
:030000000207CA2A
:0C07CA00787FE4F6D8FD758175020811F7
:1003F900BB010CE58229F582E5833AF583E02250B9
:1004090006E92582F8E622BBFE06E92582F8E22202
:0D041900E58229F582E5833AF583E493221C
:10042600BB010689828A83F0225002F722BBFE01B5
:02043600F322AF
:10043800C2D5EC30E709B2D5E4C39DFDE49CFCEEDF
:1004480030E715B2D5E4C39FFFE49EFE120490C3C3
:10045800E49DFDE49CFC800312049030D507C3E4BE
:060468009FFFE49EFE224E
:0E046E00C3E49FFFE49EFEE49DFDE49CFC229F
:10047C00E86010ECA2E713FCED13FDEE13FEEF1396
:04048C00FFD8F02283
:100AD000C3EE6480948040028007C3E49FFFE49EDD
:020AE000FE22F4
:1007D6000204E5E493A3F8E493A34003F68001F250
:1007E60008DFF48029E493A3F85407240CC8C33324
:1007F600C4540F4420C8834004F456800146F6DFF3
:10080600E4800B0102040810204080900856E47E24
:10081600019360BCA3FF543F30E509541FFEE493E7
:10082600A360010ECF54C025E060A840B8E493A3AE
:10083600FAE493A3F8E493A3C8C582C8CAC583CAD9
:10084600F0A3C8C582C8CAC583CADFE9DEE780BE91
:0108BA00003D
:10049000BC000BBE0029EF8DF084FFADF022E4CC50
:1004A000F875F008EF2FFFEE33FEEC33FCEE9DEC19
:1004B000984005FCEE9DFE0FD5F0E9E4CEFD22ED5F
:1004C000F8F5F0EE8420D21CFEADF075F008EF2FA9
:1004D000FFED33FD4007985006D5F0F222C398FD9A
:0504E0000FD5F0EA2237
:00000001FF
