:100FBD004469616E6A6920563D00542020203A2014
:100FCD00203A004F4E004F46005249474854004CBE
:040FDD00494654002D
:0C0F6C00012300012501C181C103C184E3
:1009350012105C120F971210511210281210441247
:100945001083300172120DAC121067AB25E4FD7FE8
:100955000A120D4B7BFF7A0F79BDE4FD7F01120F63
:100965003F7BFF7A0F79C77D017F01120F3FAB50A7
:100975007D017F03120D4BAB517D017F06120D4B9F
:10098500AB527D017F09120D4B7BFF3003067A0FB9
:1009950079D080047A0F79D3E4FD7F0E120F3F7B67
:1009A500FF3004067A0F79D680047A0F79DC7D0151
:1009B5007F0C120F3FC201E52AB4010F0525E4F5AE
:1009C5002AE525D3940A400375250AE52AB4020CC5
:1009D5001525E4F52AE5257003752501E52AB403F7
:1009E50005B203E4F52AE52A64046003020947B267
:0609F50004F52A02094787
:07108300D288D2A8D2AF22EF
:0D104400758902E4F58CF58AD2A9D28C22C0
:0E102800438910758D40E4F58BD2ABD28E2239
:0B10510075CB50E4F5CAD2ADD2CA2224
:03002B00020E08BA
:100E0800C0E0C0F0C083C082C0D075D000C000C0B0
:100E180001C002C003C004C005C006C007C2CF128B
:100E28000B498F2AE523D3940A4007D20175230082
:100E380080020523D007D006D005D004D003D00205
:0F0E4800D001D000D0D0D082D083D0F0D0E03213
:03001B000209FBDC
:1009FB00C0E0C0F0C083C082C0D075D000C000C0C2
:100A0B0001C002C003C004C005C006C007E525B481
:100A1B000A05758DE78058E525B40905758DE680C7
:100A2B004EE525B40805758DE58044E525B407052D
:100A3B00758DE3803AE525B40605758DE18030E5CB
:100A4B0025B40505758DDC8026E525B40405758D6B
:100A5B00D2801CE525B40305758DC88012E525B43D
:100A6B000205758D968008E525B40103758D3275E9
:100A7B008B00A203920AA204920B120AA3D007D0F6
:100A8B0006D005D004D003D002D001D000D0D0D0F6
:080A9B0082D083D0F0D0E032DC
:03000B0002108A56
:03108A0005243208
:03000300020C6587
:100C6500C0E0C0F0C083C082C0D075D000C000C055
:0D0C750001C002C003C004C005C006C007D6
:100C8200300029E524C3943F500AE524C39421404F
:100C920003752200742B2522F8A624752400052250
:100CA200E522B4210CD2027522008005752400D2FF
:100CB20000300207120F10C202D205300509C20528
:070CC200120E578F2AB2A0A9
:100CC900D007D006D005D004D003D002D001D0007F
:0B0CD900D0D0D082D083D0F0D0E03229
:100F10007E01E4FD7C01742B2EF8E6D39407400398
:100F2000430780ECC394085004EFC313FF0E0CBCBE
:0E0F300009E474262DF8A607E4FF0DBD04D6D3
:010F3E002290
:100E5700E52812090F0E84080E7B0C0E7E180E87EC
:100E67001C0E8D420E934A0E90520E8A5A0E815EC8
:100E770000000E957F01227F02227F03227F04223A
:0F0E87007F05227F06227F07227F08227F092214
:0A1071003031323334353637383968
:0F1019007580FFC2A4D2A5C2A6D2A6E58033225D
:100FF90012101940FBC2A4C2A5D2A68F80C2A62294
:1010090012101940FBD2A4C2A5D2A68F80C2A62273
:0A1067007F01120FF97F0502103D12
:100F3F008F088D098B0A8A0B890CAB0AAA0BA90C97
:100F4F001208F6FB6016AD09AF08120FE174012508
:0D0F5F000CF50CE4350BF50B050880DE22C7
:100FE100AE07AC03ED7005EE24808003EE24C0FF54
:080FF100120FF9AF0402100910
:100F97001210361210361210367F38120FF97F08EA
:100FA700120FF97F01120FF97F06120FF91F1210A6
:060FB7003D7F0C020FF962
:060D4B008F088D098B0AE0
:100D5100E4F50B78127C00FD7BFF7A107971FE7F40
:100D61000A1208D0E4FAE50A75F00A84740C2AF82C
:100D7100A6F0E50A75F00A84F50A0AEAC39406505A
:100D810007E50AD3940050DEE50BC39A501CEAC371
:100D9100950BFF740B2FF8E62412F8E6FBAD09AFB3
:0A0DA10008120FE10508050B80DEC3
:010DAB002225
:071036007F38120FF97F055E
:07103D00AE071FEE70FA225E
:080F7800C106C107C108C1094F
:100B490020B716051FE51FB40302D206E51FB40A34
:100B590013C206751F047F0B22E4F51F300605C278
:100B6900067F012220B616051CE51CB40302D20734
:100B7900E51CB40A0BC207751C047F1622E4F51C98
:100B8900300705C2077F022220B516051DE51DB4F1
:100B99000302D208E51DB40A0BC208751D047F21A2
:100BA90022E4F51D300805C2087F032220B416058A
:100BB9001EE51EB40302D209E51EB40A0BC209756B
:100BC9001E047F2C22E4F51E300904C2097F042289
:0A0F8000084C140D0B1D14210B0585
:070E9600120E9DAD5B7F8A87
:100E9D00D2975307FEE4FEEF30E004D2968002C2F3
:100EAD0096D295C295EFC313FF0EBE08EAE4FEED90
:100EBD0030E004D2968002C296D295C295EDC3134E
:070ECD00FD0EBE08EAC2970A
:010ED40022FB
:100ED500D297430701E4FDEF30E004D2968002C2C9
:100EE50096D295C295EFC313FF0DBD08EAE4FDEE5A
:100EF500C313FE309605430680800353067FD295C3
:0A0F0500C2950DBD08E9C297AF06C2
:010F0F0022BF
:100CE400E4FF744C2FF8E6FE75F00A84FDEE75F00F
:100CF4000A8474542FF8A6F0EDC454F0FE74542FF3
:100D0400F8EE26F60FBF08DAE4FD7F8E120E9D7D05
:100D1400807F80120E9DAD557F8C120E9DAD567F47
:100D240088120E9DAD577F86120E96AD587F8412A1
:100D34000E9DAD597F82120E9DAD5A7F80120E9684
:070D44007D807F8E020E9DF1
:100DAC007F8C120ED58F557F88120ED58F567F866D
:100DBC00120ED58F577F84120ED58F587F82120E4C
:100DCC00D58F597F80120ED5EF547FF55A7F8A123A
:100DDC000ED58F5BE4FF74542FF8E6FEC4540FFD60
:100DEC00EE540FFE744C2FF8A606ED75F00AA4FE17
:0B0DFC00744C2FF8EE26F60FBF08DB4A
:010E070022C8
:0B105C00C297C295E4FD7F80020E9D4C
:08107B0001010100000000006A
:0C0F8A00015C00015D06015E04015F02D5
:100AA300200A03020B40300B50E55CD3940740034C
:100AB300E4F55CE55DD394074003E4F55DE55ED3BF
:100AC30094074003E4F55EE55FD394074003E4F540
:100AD3005FE55C90107B9324FF9291E55D9324FF87
:100AE3009292E55E9324FF9293E55F9324FF9294A1
:100AF300055C055D055E055F22E55C90107B932434
:100B0300FF9291E55D9324FF9292E55E9324FF9219
:100B130093E55F9324FF9294E55C7003755C08E5AD
:100B23005D7003755D08E55E7003755E08E55F70D3
:100B330003755F08155C155D155E155F22C291C2D2
:060B430092C293C294224D
:03000000020BD917
:0C0BD900787FE4F6D8FD75815F020C20E7
:10080000E709F608DFFA8046E709F208DFFA803EDA
:1008100088828C83E709F0A3DFFA8032E309F608C7
:10082000DFFA8078E309F208DFFA807088828C832F
:10083000E309F0A3DFFA806489828A83E0A3F608E3
:10084000DFFA805889828A83E0A3F208DFFA804CBD
:1008500080D280FA80C680D4806980F28033801094
:1008600080A680EA809A80A880DA80E280CA8033FD
:1008700089828A83ECFAE493A3C8C582C8CCC58375
:10088000CCF0A3C8C582C8CCC583CCDFE9DEE78045
:100890000D89828A83E493A3F608DFF9ECFAA9F0C4
:1008A000EDFB2289828A83ECFAE0A3C8C582C8CC1A
:1008B000C583CCF0A3C8C582C8CCC583CCDFEADE33
:1008C000E880DB89828A83E493A3F208DFF980CC95
:1008D00088F0EF60010E4E60C388F0ED2402B4048E
:1008E0000050B9F582EB2402B4040050AF23234535
:0608F00082239008507302
:1008F600BB010689828A83E0225002E722BBFE0200
:09090600E32289828A83E4932232
:10090F00D083D082F8E4937012740193700DA3A377
:10091F0093F8740193F5828883E47374029368608B
:06092F00EFA3A3A380DF8B
:100BE500020935E493A3F8E493A34003F68001F2E8
:100BF50008DFF48029E493A3F85407240CC8C33311
:100C0500C4540F4420C8834004F456800146F6DFDF
:100C1500E4800B0102040810204080900F6CE47EF4
:100C2500019360BCA3FF543F30E509541FFEE493D4
:100C3500A360010ECF54C025E060A840B8E493A39B
:100C4500FAE493A3F8E493A3C8C582C8CAC583CAC6
:100C5500F0A3C8C582C8CAC583CADFE9DEE780BE7E
:010F9600005A
:00000001FF
