:10093200023A0000023200000234000002210000EC
:0C09420002230000022500000227000034
:1006A3008B108A1189128C138D14C3E51364809403
:1006B30080500FC3E49514F514E49513F513742DCA
:1006C3008008AB10AA11A9127420120426AE13AF2E
:1006D300147C007D64120438EF2430FFAB10051244
:1006E300E51270020511F9AA11EF120426AE13AF39
:1006F300147C007D641204388C138D14AE13AF1474
:100703007C007D0A120438EF2430FFAB100512E59C
:100713001270020511F9AA11EF120426AE13AF14D9
:100723007C007D0A1204388C138D14E5142430FFE9
:10073300AB100512E51270020511F9AA11EF0204BC
:01074300268F
:1008D500E4FDFCC3ED9FEC9E5015E4FBFA0BBB0059
:0F08E500010AEB64794A70F50DBD00010C80E447
:0108F40022E1
:03000300DFFE22FB
:1009B200AE07AF061EEF600C7FF51200037FF51243
:0509C200000380EE229D
:0F0A0200438901E4F58CF58AD2A9D28CD2B922AE
:0D000E00438910E4F58DF58BC2ABC28E2244
:10080E007D017F381209C77D017F081209C77D015E
:10081E007F011209C77D017F061209C77D017F0C7A
:10082E001209C77B41E4FDFF1208F57B477D01E409
:04083E00FF0208F5B8
:1009DC007580FFC2A4D2A500D2A60000E58020E756
:0409EC00FBC2A62282
:1009C700ED60031209DCC2A4C2A5008F8000D2A685
:0509D7000000C2A62291
:1009F0001209DCD2A4C2A5008F8000D2A60000C2DA
:020A0000A6222C
:1008F500AE07AC0353050153060FED6003430640F5
:0F090500430680AF06E4FD1209C7AF040209F0F4
:0A07D0008F088D098B0A8A0B890C33
:1007DA00E4F50F53090153080FE50E150EAE0D701F
:1007EA0002150D4E601DAB0AAA0BA90C850F827566
:1007FA0083001203F9FBAD09AF081208F5050F05CE
:03080A000880D68D
:01080D0022C8
:10096900000000000000000000000000000000007E
:0909790000000000000000002253
:0F0A1100D291D290120969C291120969C2902242
:0C0A4800C291D290120969D29102096992
:0E0A2000A2009291D290120969C29002096957
:0D0A2E00D290120969A291C29012096922AA
:10098200E4FEEF25E0FF9291D290120969C2901223
:0909920009690EBE08EC020A2EF0
:10091400E4FFD291FEEF25E0FFD290120969A29183
:0D092400E4334207C2901209690EBE08E8D4
:0109310022A3
:10099B00AC07120A117FD0120982AF04120982AF81
:0709AB0005120982020A484F
:02086D00AD07D5
:10086F00120A117FD0120982AF05120982120A11E2
:10087F007FD1120982120914D200120A20120A48DB
:01088F002246
:1008B300E4FD7F6B12099B7D077F1912099B1D7F46
:1008C3001A12099B7D187F1B12099B7D017F1C0255
:0208D300099B7F
:02089000AC07B3
:1008920012086DAB07EC04FF12086DAD07AF03EF52
:1008A2003395E0EFFEED3395E0FCE42DFFEE3CFEE8
:0108B2002223
:100842008D158B167C007D401204387B007A00796E
:100852002DAD07AC061206A37B007A00792D750D2B
:0B08620000750E04AD16AF150207D0A4
:03000B0002094F98
:10094F0020920885228C85248A800C85268C852808
:0A095F008A753400753500B292323B
:03001B00020A3B9B
:0D0A3B00758D00758B00753200753301322A
:1004E5007FF47E011208D5D2AF1208B3120A027F3B
:1004F500967E001208D5E535453470FA7F3B120823
:1005050090AC06AD07EC12033F8F398E388D378CD2
:1005150036753400753501E4FFFEFDFCAB39AA38AC
:10052500A937A8361202BC5017AF39AE38AD37AC73
:10053500361203298F398E388D378C36D293800247
:10054500C293AF39AE38AD37AC36E4FBFA79807873
:100555004112021F8F398E388D378C36E4FFFE7DB0
:10056500B87C41AB39AA38A937A8361202BC500667
:100575007F01C00780047F00C007AF39AE38AD37B3
:10058500AC36E4FBFAF9F81202BC50047E01800295
:100595007E00D0E05E6009753A00753B01020651A8
:1005A500E4FFFE7D307C43AB39AA38A937A8361263
:1005B50002BC50067F01C00780047F00C007AF3929
:1005C500AE38AD37AC36E4FBFA79B878411202BCE7
:1005D50050047E0180027E00D0E05E6025E4FFFECF
:1005E5007D807C40AB39AA38A937A836120116E4BC
:1005F500FBFA798C78431200251203788E3A8F3BEB
:10060500804AE4FFFE7D2F7C44AB39AA38A937A880
:10061500361202BC50067F01C00780047F00C00768
:10062500AF39AE38AD37AC36E4FBFA7930784312E2
:1006350002BC50047E0180027E00D0E05E60087539
:100645003A03753BDE8005E4F53AF53BAE3AAF3B40
:10065500AB07AA06C374FF9BFF74FF9AFEE49400E0
:10066500FDE49400FC780812047C8E218F22C3746B
:10067500FF9BFFE4F5238F24E53B2417FFE53A3480
:10068500FCFEE433FDE433FC780812047C8E258FF0
:0E06950026E53B2417FFE4F5278F280204FB1F
:10001E000203E4E86480F8E933E83360110460F029
:10002E00ED33EC337009E8FCE9FDEAFEEBFF220448
:10003E0060DED3EB9FEA9EE99DE8C2E78CF0C2F743
:10004E0095F0400CE8CCF8E9CDF9EACEFAEBCFFB0F
:10005E001203AF85D0F05804700320D5B3E80470B6
:10006E00075002B2D50203EE92D5EC0460F7E4CC51
:10007E00C0E0C398F8603B94186008400DD0E0FBD8
:10008E000203C6E4FBFAC9FC8028E830E406E4C9A2
:10009E00FBE4CAFCE830E305E4C9CACBFCE854072C
:1000AE006010F8C3E913F9EA13FAEB13FBEC13FC37
:1000BE00D8F130F52FC3E49CFCEF9BFFEE9AFEEDDA
:1000CE0099FDD0E0FBEF4E4D4C701222DB03020384
:1000DE00EBEC2CFCEF33FFEE33FEED33FDED30E7B2
:1000EE00EB0203C6EF2BFFEE3AFEED39FDD0E0FB3F
:1000FE0050130BBB00030203EEED13FDEE13FEEFE8
:08010E0013FFEC13FC0203C611
:10011600EC4D6011E8497017ED33EC3304600DE4E3
:10012600FCFFFEFD22E933E8330470F80203E41213
:1001360003AF58046009E4CC248150062850090214
:1001460003EE2840030203EBC0E0EB4A7044B9809B
:1001560006D0E0FB0203DAEF4E701CBD8008EBFF11
:10016600EAFEE9FD80EBE98DF0A4FEE5F00201FF71
:10017600E9CDF9EAFEEBFFEF89F0A4FCE5F0CE89C4
:10018600F0A42EFFE435F0CD89F0A42DFEE435F081
:100196008067EF4E7005BD80D780C3EF8BF0A4ACAF
:1001A600F0EE8BF0A42CFCE435F0F8EF8AF0A42CEA
:1001B600E5F038FCE433CB8DF0A42CFCE5F03BF8FD
:1001C600EE8AF0A42CFCE5F038F8E433CF89F0A4ED
:1001D6002CFCE5F038CF3400CE89F0A42FFFE5F0F3
:1001E6003EFEE433C98DF0A42EFEE5F039CD8AF04B
:1001F600A42FFFE5F03EFEE43DFD33D0E0FB5007C3
:100206000BBB000F0203EEEC2CFCEF33FFEE33FECC
:06021600ED33FD0203C6FA
:10021C000203EEEC5D046005E8590470030203E48C
:10022C001203AF580460F6EC4860F2EC7004FDFE6B
:10023C00FF22C860DB2481C85009C39860025006B5
:10024C000203EB9850CAF582E9294B4A7005AB8240
:10025C000203DA75F0007C1A7880C3EF9BEE9AEDFE
:10026C0099400DC3EF9BFFEE9AFEED99FDE842F02D
:10027C00DC23ACF0D0E0FFD0E0FED0E0FDAB822080
:10028C00E7101BEB60BAEC2CFCEF33FFEE33FEED0A
:10029C0033FD0203C6E803F830E705C0F075F00043
:1002AC00EF2FFFEE33FEED33FD40B830E7C280AAEE
:1002BC0074F8CC6480CCC86480C8F582046043C3F5
:1002CC00EB9FF5F0EA9E42F0E99D42F0E89C45F088
:1002DC0060305018E5825FFFE582F42B5582FB50AD
:1002EC00210ABA001D09B90019088016E5825BFBCA
:1002FC00E582F42F5582FF50090EBE00050DBD009E
:10030C00010CC3EB9FF5F0EA9E42F0E99D42F0E848
:0D031C009C45F06007CC4820E701B3EC22BF
:10032900ED33EC33600A047003BD8004ECB2E7FCE2
:0103390022A1
:10033A0075F020800E75F010800575F0087D007E3E
:10034A00007F003392D530D50312046EEC3340108F
:10035A00EF33FFEE33FEED33FDEC33FCD5F0ED2247
:0E036A00E5F0247EA2D513CC92E7CDCEFF2283
:10037800EDD2E7CD33EC3392D524814006E4FFFE7D
:10038800FDFC22FCE4CFCECDCC24E0501174FF80DC
:10039800EDC3CC13CCCD13CDCE13CECF13CF047079
:0703A800F030D5DE02046E07
:1003AF00E9D2E7C933E833F892D5EDD2E7CD33EC94
:0703BF0033FC5002B2D5220D
:1003C600EC30E7100FBF000C0EBE00080DBD000498
:1003D6000BEB6014A2D5EB13FCED92E7FD2274FF44
:1003E600FCFDFEFF22E480F8A2D574FF13FC7D809D
:0303F600E480EFB1
:03000000020744B0
:0C074400787FE4F6D8FD75813B02078B3E
:1003F900BB010CE58229F582E5833AF583E02250B9
:1004090006E92582F8E622BBFE06E92582F8E22202
:0D041900E58229F582E5833AF583E493221C
:10042600BB010689828A83F0225002F722BBFE01B5
:02043600F322AF
:10043800C2D5EC30E709B2D5E4C39DFDE49CFCEEDF
:1004480030E715B2D5E4C39FFFE49EFE120490C3C3
:10045800E49DFDE49CFC800312049030D507C3E4BE
:060468009FFFE49EFE224E
:0E046E00C3E49FFFE49EFEE49DFDE49CFC229F
:10047C00E86010ECA2E713FCED13FDEE13FEEF1396
:04048C00FFD8F02283
:100750000204E5E493A3F8E493A34003F68001F2D6
:1007600008DFF48029E493A3F85407240CC8C333AA
:10077000C4540F4420C8834004F456800146F6DF79
:10078000E4800B0102040810204080900932E47ECE
:10079000019360BCA3FF543F30E509541FFEE4936E
:1007A000A360010ECF54C025E060A840B8E493A335
:1007B000FAE493A3F8E493A3C8C582C8CAC583CA60
:1007C000F0A3C8C582C8CAC583CADFE9DEE780BE18
:01094E0000A8
:10049000BC000BBE0029EF8DF084FFADF022E4CC50
:1004A000F875F008EF2FFFEE33FEEC33FCEE9DEC19
:1004B000984005FCEE9DFE0FD5F0E9E4CEFD22ED5F
:1004C000F8F5F0EE8420D21CFEADF075F008EF2FA9
:1004D000FFED33FD4007985006D5F0F222C398FD9A
:0504E0000FD5F0EA2237
:00000001FF
