:10086A0002190000020F0001021100010213000325
:10052E008B238A2489258C268D27C3E52664809407
:10053E0080500FC3E49527F527E49526F526742DF4
:10054E008008AB23AA24A9257420120330AE26AF4F
:10055E00277C007D64120342EF2430FFAB23052578
:10056E00E52570020524F9AA24EF120330AE26AF5A
:10057E00277C007D641203428C268D27AE26AF2782
:10058E007C007D0A120342EF2430FFAB230525E5E4
:10059E002570020524F9AA24EF120330AE26AF27E8
:1005AE007C007D0A1203428C268D27E5272430FF1E
:1005BE00AB230525E52570020524F9AA24EF0203D5
:0105CE0030FC
:10076000E4FDFCC3ED9FEC9E5015E4FBFA0BBB00CF
:0F077000010AEB64794A70F50DBD00010C80E4BD
:01077F002257
:03000300DFFE22FB
:10080600AE07AF061EEF600C7FF51200037FF512F0
:05081600000380EE224A
:0F087B00438901E4F58CF58AD2A9D28CD2B92237
:0D000E00438910E4F58DF58BD2ABD28E2224
:0B08C00075CBF875CA30D2ADD2CA2249
:100699007D017F3812081B7D017F0812081B7D012F
:1006A9007F0112081B7D017F0612081B7D017F0C4B
:1006B90012081B7B41E4FDFF1207807B477D01E4A3
:0406C900FF020780A5
:100830007580FFC2A4D2A500D2A60000E58020E703
:04084000FBC2A6222F
:10081B00ED6003120830C2A4C2A5008F8000D2A6DF
:05082B000000C2A6223E
:10085800120830D2A4C2A5008F8000D2A60000C220
:02086800A622C6
:10078000AE07AC0353050153060FED60034306406B
:0F079000430680AF06E4FD12081BAF04020858B1
:0A065B008F238D248B258A26892722
:10066500E4F52A53240153230FE5291529AE2870F3
:100675000215284E601DAB25AA26A927852A827555
:100685008300120303FBAD24AF23120780052A055F
:030695002380D6E9
:01069800223F
:1007BD00000000000000000000000000000000002C
:0907CD0000000000000000002201
:0F088A00D291D2901207BDC2911207BDC2902227
:0C08B400C291D2901207BDD2910207BD84
:0E089900A2009291D2901207BDC2900207BD3C
:0D001E00D2901207BDA291C2901207BD2220
:1007D600E4FEEF25E0FF9291D2901207BDC290127F
:0907E60007BD0EBE08EC02001E66
:10079F00E4FFD291FEEF25E0FFD2901207BDA291A8
:0D07AF00E4334207C2901207BD0EBE08E8F9
:0107BC00221A
:1007EF00AC0712088A7FD01207D6AF041207D6AF14
:0707FF00051207D60208B441
:0206F800AD074C
:1006FA0012088A7FD01207D6AF051207D612088AC7
:10070A007FD11207D612079FD2001208991208B495
:01071A0022BC
:10073E00E4FD7F6B1207EF7D077F191207EF1D7F18
:10074E001A1207EF7D187F1B1207EF7D017F1C0227
:02075E0007EFA3
:02071B00AC0729
:10071D001206F8AB07EC04FF1206F8AD07AF03EFB6
:10072D003395E0EFFEED3395E0FCE42DFFEE3CFE5E
:01073D002299
:1006CD008D218B227C007D401203427B007A0079C4
:1006DD000AAD07AC0612052E7B007A00790A752843
:0B06ED0000752904AD22AF2102065B5E
:03000B00020844A4
:10084400C0E0E519F58C851A8AB29275110075120B
:0408540001D0E032BD
:03001B000208A731
:0D08A700758D00758B00750F007510013206
:03002B00020006CA
:03000600C2CF3234
:1003DB007FF47E01120760C294C295C296C297C287
:1003EB00AFC2ABC2AD12069912073E12087B1200C8
:1003FB000ED2AF7F967E00120760E5106401450FA9
:10040B00704D7F3B12071BE4FB7D021206CD7F3D37
:10041B0012071BE4FB7D071206CD7F3F12071BE47F
:10042B00FB7D0C1206CD7F4312071B7B017D021255
:10043B0006CD7F4512071B7B017D071206CD7F473B
:10044B0012071B7B017D0C1206CDE4F50FF510E5B1
:10045B00126401451170A3F511F5127F3B12071BB6
:10046B00AC06AD07EC1202498F188E178D168C1542
:10047B00E4FFFEFDFCAB18AA17A916A8151201C6BE
:10048B00501FAF18AE17AD16AC151202338F188E66
:10049B00178D168C150514E51470020513D2938075
:1004AB000AE514151470021513C293AF18AE17ADED
:1004BB0016AC15E4FBFA798078421201298F188E5D
:1004CB00178D168C15E4FFFEFDFCAB18AA17A916A9
:1004DB00A8151201C6700AF518F517751680751553
:1004EB003F7F007E147D7F7C47AB18AA17A916A807
:1004FB00151200351202828E198F1AD3E51A94B099
:10050B00E51994FF40067519FF751AB0C3E51A94E7
:10051B00ACE51994FE40030204057519FE751AAC7F
:03052B00020405C2
:10002E000202EEE86480F8E933E83360110460F010
:10003E00ED33EC337009E8FCE9FDEAFEEBFF220438
:10004E0060DED3EB9FEA9EE99DE8C2E78CF0C2F733
:10005E0095F0400CE8CCF8E9CDF9EACEFAEBCFFBFF
:10006E001202B985D0F05804700320D5B3E804709D
:10007E00075002B2D50202F892D5EC0460F7E4CC38
:10008E00C0E0C398F8603B94186008400DD0E0FBC8
:10009E000202D0E4FBFAC9FC8028E830E406E4C989
:1000AE00FBE4CAFCE830E305E4C9CACBFCE854071C
:1000BE006010F8C3E913F9EA13FAEB13FBEC13FC27
:1000CE00D8F130F52FC3E49CFCEF9BFFEE9AFEEDCA
:1000DE0099FDD0E0FBEF4E4D4C701222DB03020275
:1000EE00F5EC2CFCEF33FFEE33FEED33FDED30E798
:1000FE00EB0202D0EF2BFFEE3AFEED39FDD0E0FB26
:10010E0050130BBB00030202F8ED13FDEE13FEEFCE
:08011E0013FFEC13FC0202D0F8
:100126000202F8EC5D046005E8590470030202EE71
:100136001202B9580460F6EC4860F2EC7004FDFE59
:10014600FF22C860DB2481C85009C39860025006AC
:100156000202F59850CAF582E9294B4A7005AB822E
:100166000202E475F0007C1A7880C3EF9BEE9AEDEC
:1001760099400DC3EF9BFFEE9AFEED99FDE842F024
:10018600DC23ACF0D0E0FFD0E0FED0E0FDAB822077
:10019600E7101BEB60BAEC2CFCEF33FFEE33FEED01
:1001A60033FD0202D0E803F830E705C0F075F00031
:1001B600EF2FFFEE33FEED33FD40B830E7C280AAE5
:1001C60074F8CC6480CCC86480C8F582046043C3EC
:1001D600EB9FF5F0EA9E42F0E99D42F0E89C45F07F
:1001E60060305018E5825FFFE582F42B5582FB50A4
:1001F600210ABA001D09B90019088016E5825BFBC1
:10020600E582F42F5582FF50090EBE00050DBD0094
:10021600010CC3EB9FF5F0EA9E42F0E99D42F0E83F
:0D0226009C45F06007CC4820E701B3EC22B6
:10023300ED33EC33600A047003BD8004ECB2E7FCD9
:010243002298
:1002440075F020800E75F010800575F0087D007E35
:10025400007F003392D530D503120378EC3340107D
:10026400EF33FFEE33FEED33FDEC33FCD5F0ED223E
:0E027400E5F0247EA2D513CC92E7CDCEFF227A
:10028200EDD2E7CD33EC3392D524814006E4FFFE74
:10029200FDFC22FCE4CFCECDCC24E0501174FF80D3
:1002A200EDC3CC13CCCD13CDCE13CECF13CF047070
:0702B200F030D5DE020378F5
:1002B900E9D2E7C933E833F892D5EDD2E7CD33EC8B
:0702C90033FC5002B2D52204
:1002D000EC30E7100FBF000C0EBE00080DBD00048F
:1002E0000BEB6014A2D5EB13FCED92E7FD2274FF3B
:1002F000FCFDFEFF22E480F8A2D574FF13FC7D8094
:03030000E480EFA7
:030000000205CF27
:0C05CF00787FE4F6D8FD75812A0206163C
:10030300BB010CE58229F582E5833AF583E02250AF
:1003130006E92582F8E622BBFE06E92582F8E222F9
:0D032300E58229F582E5833AF583E4932213
:10033000BB010689828A83F0225002F722BBFE01AC
:02034000F322A6
:10034200C2D5EC30E709B2D5E4C39DFDE49CFCEED6
:1003520030E715B2D5E4C39FFFE49EFE120386C3C5
:10036200E49DFDE49CFC800312038630D507C3E4C0
:060372009FFFE49EFE2245
:0E037800C3E49FFFE49EFEE49DFDE49CFC2296
:1005DB000203DBE493A3F8E493A34003F68001F258
:1005EB0008DFF48029E493A3F85407240CC8C33321
:1005FB00C4540F4420C8834004F456800146F6DFF0
:10060B00E4800B010204081020408090086AE47E0D
:10061B00019360BCA3FF543F30E509541FFEE493E4
:10062B00A360010ECF54C025E060A840B8E493A3AB
:10063B00FAE493A3F8E493A3C8C582C8CAC583CAD6
:10064B00F0A3C8C582C8CAC583CADFE9DEE780BE8E
:01087A00007D
:10038600BC000BBE0029EF8DF084FFADF022E4CC5B
:10039600F875F008EF2FFFEE33FEEC33FCEE9DEC24
:1003A600984005FCEE9DFE0FD5F0E9E4CEFD22ED6A
:1003B600F8F5F0EE8420D21CFEADF075F008EF2FB4
:1003C600FFED33FD4007985006D5F0F222C398FDA5
:0503D6000FD5F0EA2242
:00000001FF
